:020000040800F2
:1000000000000220B50200080503000805030008EF
:1000100005030008050300080503000800000000B0
:1000200000000000000000000000000005030008C0
:100030000503000800000000050300080503000890
:100040000503000805030008050300080503000870
:100050000503000805030008050300080503000860
:100060000503000805030008050300080503000850
:100070000503000805030008050300080503000840
:100080000503000805030008050300080503000830
:100090000503000805030008050300080503000820
:1000A0000503000805030008050300080503000810
:1000B0000503000805030008050300080503000800
:1000C00005030008050300080503000805030008F0
:1000D00005030008050300080503000805030008E0
:1000E00005030008050300080503000805030008D0
:1000F00005030008050300080503000805030008C0
:1001000005030008050300080503000805030008AF
:10011000050300080503000805030008050300089F
:10012000050300080503000805030008050300088F
:10013000050300080503000805030008050300087F
:10014000050300080503000805030008050300086F
:10015000050300080503000805030008050300085F
:10016000050300080503000805030008050300084F
:10017000050300080503000805030008050300083F
:10018000050300080503000805030008050300082F
:10019000050300080000000005030008050300082F
:1001A000050300080503000805030008050300080F
:1001B00005030008050300080503000805030008FF
:1001C00005030008050300080503000805030008EF
:0801D000050300080503000807
:1001D80010B5054C237833B9044B13B10448AFF379
:1001E80000800123237010BD0000002000000000E3
:1001F8002C03000808B5034B1BB103490348AFF3B0
:10020800008008BD00000000040000202C03000846
:1002180070B50D4D0D4C641BA4100026A64209D1E3
:100228000B4D0C4C00F07EF8641BA4100026A6426F
:1002380005D170BD55F8043B98470136EEE755F8EF
:10024800043B98470136F2E74403000844030008DA
:10025800440300084803000880B500AF00F002F826
:10026800FEE7000080B400AF0F4B1B680E4A43F452
:100278008073136000BF0C4B1B6803F48063002B72
:10028800F9D0094B9B68084A43F00103936000BF0B
:10029800054B9B6803F00103002BF9D100BF00BF99
:1002A800BD465DF8047B7047001002400D48854646
:1002B8000D480E490E4A002302E0D458C4500433B6
:1002C800C4188C42F9D30B4A0B4C002301E013608D
:1002D8000432A242FBD300F013F8FFF799FFFFF7AF
:1002E800BBFFFEE700000220000000200000002005
:1002F8004C030008000000201C000020FEE700005E
:1003080080B400AF064BD3F88830054A43F4700335
:10031800C2F8883000BFBD465DF8047B704700BF57
:1003280000ED00E0F8B500BFF8BC08BC9E46704779
:0C033800F8B500BFF8BC08BC9E4670473A
:04034400FD010008AF
:04034800D9010008CF
:04000005080002B538
:00000001FF
